:020000040800F2
:1000000000000220090A0008590800085B080008DF
:100010005D0800085F080008610800080000000093
:10002000000000000000000000000000590A000865
:10003000630800080000000041020008F901000800
:10004000590A0008590A0008590A0008590A000804
:10005000590A0008590A0008590A0008590A0008F4
:10006000590A0008590A0008590A0008590A0008E4
:10007000590A0008590A0008590A0008590A0008D4
:10008000590A0008590A0008590A0008000000002F
:10009000000000000000000000000000590A0008F5
:1000A000590A0008590A000865080008590A00089A
:1000B000590A0008590A0008590A0008590A000894
:1000C000590A0008590A0008590A0008590A000884
:1000D000590A000875080008590A000800000000C5
:1000E000590A0008590A0008590A000800000000CF
:1000F000000000000000000000000000590A000895
:1001000000000000590A0008590A0008590A0008AE
:1001100000000000000000000000000000000000DF
:10012000590A0008590A0008A9080008590A0008D5
:10013000590A000800000000000000000000000054
:10014000000000000000000000000000590A000844
:10015000590A0008590A0008B9080008590A000895
:10016000590A0008590A00080000000000000000B9
:10017000000000000000000000000000000000007F
:1001800000000000590A0008000000000000000004
:08019000590A0008590A000891
:1001A00072B64FF0E0201949C0F8081D18481749E9
:1001B000096801601748016841F0010101604FF0D2
:1001C000E020154941614FF0070101614FF0000146
:1001D000C0F8181D4FF07F41C0F81C1D0F49C0F832
:1001E000201D7047FFF7FEBFFFF7FEBFFFF7FEBF02
:1001F00001B5BDE80140704701B500F081F8BDE8E8
:1002000001407047FFF7FEBFFFF7FEBF0000000888
:1002100090080020001000E03F420F000000FF4067
:100220004FF00000224A106062B64FF080504FF04D
:10023000E021C1F8040DBFF34F8FBFF36F8FFEE7CE
:100240001C481D4A4FF00003016869B10360EFF3D9
:10025000098C2CE9F00F194C4CF804ED2568C1F815
:1002600008C00DB18D61236072B6116889B101605B
:1002700062B64F68114C8D6907F101074F60256028
:10028000D1F808C05CF804EBBCE8F00F8CF30988E7
:10029000704772B61168016009B962B6F9E74FF0AC
:1002A00000674FF0E028C8F8047D62B6E1E700007F
:1002B000F40700208C080020880800209408002003
:1002C000026922F00702A2F144026FF002031360F8
:1002D0004FF0000353609360D360136153619361E7
:1002E000D361136253629362D362136353634FF01B
:1002F000FF339363D1634FF0807313648260704760
:100300002249086800F101000860214B1A683AB1DF
:10031000A2F101021A601AB91E4B4FF001001860D9
:100320001D490868026822B11C4B4FF001021A6097
:1003300008E000F104001A4B1A68904201D1194BF1
:1003400018680860134B1A6812B914490868D0B1CC
:100350002DE901401149086808B102F0B9FE0D4BC2
:100360001A6872B102F0B2FD0F48016849B90F482E
:1003700001680F4A13680F484FF08052994200D02D
:100380000260BDE80140BFF34F8F7047F40D0020BD
:1003900094080020F00D0020640D0020600D002066
:1003A000680D00206C0D0020F40700208C08002050
:1003B0008808002004ED00E053B94AB9002908BFBD
:1003C00000281CBF4FF0FF314FF0FF3000F00CB899
:1003D000ADF1080C6DE904CE03F0A8FBDDF804E0F4
:1003E000DDE9022304B07047704700BF0348044BA7
:1003F000834202D0034B03B118477047140000201A
:1004000014000020000000000548064B1B1AD90FFD
:1004100001EBA301491002D0034B03B11847704709
:1004200014000020140000200000000010B5064C4D
:10043000237843B9FFF7DAFF044B13B10448AFF355
:1004400000800123237010BD140000200000000074
:10045000AC3F000808B5054B1BB105490548AFF393
:100460000080BDE80840FFF7CFBF00BF00000000DC
:1004700018000020AC3F000808B500220221024805
:1004800003F070F808BD00BF3001002030B585B022
:10049000234B0022A3F80021002400E00134032CA8
:1004A000FADC204D04EB4403980029188B68009374
:1004B0008B884A884978285C03F0DCF918491A4D82
:1004C0004FF0FF33B1F80021284601F0C6FC4FF48D
:1004D00080721649284602F011F8154D284603F09F
:1004E000FBF84FF0FF33009303AB012203211148C7
:1004F00003F000F8284603F093F9039B13F0010F73
:10050000CCD096221146284603F0F6F80A4B1B6819
:100510005B684FF480720549034801F0EFFFBDE7C7
:10052000F80F0020204000086C0700203000002059
:1005300054010020300100200C07002030B589B0A4
:10054000342300934FF48063164A1749174802F08A
:100550000DFF08B109B030BDB02306930124059406
:1005600000250495039402944FF4806301930F4B8C
:1005700000932B460E4A0F490F4803F00BF82C232B
:10058000039302949623019300932B460B4A0C4944
:100590000C4803F0D3F824220B490C4802F050FF1A
:1005A000D8E700BF64020020C43F000830020020EA
:1005B0008D040008DC3F0008800100207904000859
:1005C000E83F000854010020F83F000830010020F7
:1005D0000368124A934200D0704710B582B00446B7
:1005E000002201921A6801925B680193019B0C4BF7
:1005F0001B68596889B2C1F5807189B221B920465A
:1006000001F091FC02B010BD064803F077FA002219
:100610000121054802F0A6FFF1E700BF00100140EC
:100620000C070020300000203001002008B502F047
:10063000E3F908BD10B582B0002401940D4B1A6B8C
:1006400042F480021A631B6B03F480030193019B45
:10065000224621463A2000F081FA3A2000F08EFA34
:1006600022462146462000F079FA462000F086FA1C
:1006700002B010BD0038024082B0002100910B4B47
:100680001A6B42F080021A631A6B02F08002009229
:10069000009A01911A6B42F001021A631B6B03F07E
:1006A00001030193019B02B0704700BF0038024074
:1006B00008B50268034B9A4200D008BD00F0E8F983
:1006C000FBE700BF0048014072B6FEE700B595B0F9
:1006D0003022002108A803F087FB00230393049332
:1006E00005930693079301931F4A116C41F08051C3
:1006F0001164126C02F080520192019A02931B4B1A
:100700001A6842F440421A601B6803F440430293A3
:10071000029B012308934FF48033099302230E9325
:100720004FF480020F920C221092602211921293C9
:100730000423139308A800F06DFD88B90F230393D9
:1007400002230493002305934FF4805206920793EB
:10075000032103A800F0AEFF20B915B05DF804FB3B
:10076000FFF7B2FFFFF7B0FF003802400070004013
:1007700008B500F073F9FFF7A9FFFFF77DFFFFF75A
:1007800059FF00F0A3F8FFF751FFFEE782B0002108
:1007900000910B4B5A6C42F480425A645A6C02F43A
:1007A00080420092009A01911A6C42F080521A64C1
:1007B0001B6C03F080530193019B02B0704700BF94
:1007C0000038024030B589B00546002401941D4B25
:1007D0005A6C42F480225A645B6C03F480230193C8
:1007E000019B02A903A801F03BF801F029F8164A81
:1007F000A2FB00239B0C013B1448154A026040F207
:10080000E732C260436004618460846101F08EF964
:10081000044610B1204609B030BD0C4801F040F844
:1008200004460028F6D11A2000F0A8F90F2D01D9AE
:100830000124EFE7002229461A2000F08FF9054B2A
:100840001D60E7E70038024083DE1B43640600209A
:100850000048014008000020FEE7FEE7FEE7FEE753
:10086000FEE7704708B5024801F05AF808BD00BF1E
:100870006406002010B582B00A4C204601F04EFC00
:1008800023681A6812F0100F01D102B010BD0022C7
:1008900001921A6801925B680193019B2046FFF761
:1008A00097FEF2E76C07002008B5024800F0DCFA7A
:1008B00008BD00BF0C07002008B5024800F0D4FABC
:1008C00008BD00BFAC0600207047000008B50D4809
:1008D0000D4B03604FF41653436000238360C360E5
:1008E00003610C2242618361C36101F086FA30B971
:1008F000044B1A68D36843F01003D36008BDFFF7B8
:10090000E3FEF5E76C0700200010014030B589B028
:10091000002303930493059306930793026803F15E
:10092000804303F588339A4201D009B030BD0446B4
:100930000025019503F594335A6C42F010025A6475
:100940005A6C02F010020192019A02951A6B42F061
:1009500001021A631B6B03F001030293029B4FF425
:10096000C06303930223049303230693072307938F
:1009700003A9204800F066FB1F48204B03604FF09E
:10098000006343608560C5604FF480630361456127
:100990008561C5610562456200F06EF918BB164BB2
:1009A000E3639C631648174B03604FF0006343609A
:1009B000402383600023C3604FF48062026143617F
:1009C0008361C3610362436200F056F970B90C4B56
:1009D000A3639C6300221146252000F0BFF8252068
:1009E00000F0CCF8A1E7FFF76FFED8E7FFF76CFE49
:1009F000EDE700BF000002400C0700204064024009
:100A0000AC060020B8640240DFF834D0FFF75CFF8A
:100A10000C480D490D4A002302E0D458C450043359
:100A2000C4188C42F9D30A4A0A4C002301E013602F
:100A30000432A242FBD303F029FAFFF799FE704774
:100A40000000022000000020140000208440000864
:100A500014000020A4130020FEE7000008B50B4B93
:100A60001A6842F400721A601A6842F480621A60CE
:100A70001A6842F480721A60032000F05DF80F20BB
:100A8000FFF7A0FEFFF782FE002008BD003C0240F9
:100A9000034A1168034B1B780B441360704700BF77
:100AA000B407002004000020014B1868704700BF05
:100AB000B4070020002807DB00F01F0240090123D3
:100AC0009340024A42F82030704700BF00E100E046
:100AD000002808DB0901C9B200F1604000F561405F
:100AE00080F80013704700F00F000901C9B2014BF4
:100AF0001954704714ED00E000B500F00700C0F194
:100B0000070CBCF1040F28BF4FF0040C031D062B8B
:100B10000FD9C31E4FF0FF3E0EFA0CF021EA000180
:100B200099400EFA03FE22EA0E0241EA02005DF845
:100B300004FB0023EEE70000074AD36823F4E063D8
:100B40001B041B0C000200F4E060034343F0BF638E
:100B500043F40033D360704700ED00E010B5044665
:100B6000054BD868C0F30220FFF7C6FF01462046B8
:100B7000FFF7AEFF10BD00BF00ED00E008B5FFF7C6
:100B800099FF08BD30B405682C6824F480242C60DB
:100B9000046863608368402B05D00368996003682C
:100BA000DA6030BC704703689A600368D960F8E780
:100BB00010B40368D9B21039094AA2FB01421209E4
:100BC000084CA25CC2655F2906D96FF309030433A0
:100BD0008365806D10BC70476FF309038365F8E788
:100BE000ABAAAAAA68400008836A826992B9012B5D
:100BF0000AD0022B02D00BB100207047C36A13F059
:100C0000807F28D100207047C36AB3F1C07F24D011
:100C100000207047B2F5005F09D0022B25D9032BC5
:100C200025D1C36A13F0807F23D100207047032BA6
:100C300003D8DFE803F01404140A00207047C36AE5
:100C400013F0807F0DD100207047C36AB3F1C07FDD
:100C500009D0002070470120704701207047012013
:100C60007047012070470120704701207047002025
:100C7000704701207047000070B50446FFF714FF6D
:100C8000002C5BD00546022384F83530002384F81D
:100C900034302268136823F00103136023681A6854
:100CA00012F0010F0AD0FFF7FFFE431B052BF5D909
:100CB00020236365032084F8350070BD1A6820493D
:100CC00011406268A0680243E06802432069024361
:100CD00060690243A0690243E0690243206A02435B
:100CE0000A43616A04291ED01A602668756925F0D6
:100CF0000705636A1D43042B07D1A36A1D43E36AFA
:100D00001BB12046FFF770FF90B975612046FFF7D1
:100D10004FFFE26D3F239340836000206065012315
:100D200084F83530C9E7E16A206B01430A43DBE709
:100D300040236365012084F83500BEE70120BCE74D
:100D40003F8010F038B50446856D90F834000128D6
:100D50002BD0012084F8340094F83500C0B201286B
:100D600004D0002384F83430022038BD022084F8F7
:100D70003500002060652046FFF704FFE26D3F2349
:100D80009340AB602268136843F016031360236C32
:100D900023B12268136843F00803136022681368C4
:100DA00043F0010313600020DFE70220DDE770B5A8
:100DB0000446866DFFF778FE94F83530DBB2022BDF
:100DC00006D080236365002384F83430012070BD91
:100DD00005462268136823F01603136022685369DE
:100DE00023F080035361236CE3B12268136823F07E
:100DF000080313602268136823F00103136023685B
:100E00001B6813F0010F11D0FFF74EFE431B052B9B
:100E1000F5D920236365032084F83500002384F886
:100E20003430D4E7A36C002BDFD1E3E7E26D3F233E
:100E30009340B360012384F83530002084F83400F7
:100E4000C5E790F83530DBB2022B03D08023436531
:100E500001207047052380F835300268136823F0BD
:100E60000103136000207047F0B583B004460023EF
:100E70000193724B1D68724BA3FB0535AD0A876D5C
:100E80003E68C26D08239340334210D003681A684D
:100E900012F0040F0BD01A6822F004021A60C26D1F
:100EA00008239340BB60436D43F001034365E26D4B
:100EB00001239340334209D02268526912F0800F17
:100EC00004D0BB60636D43F002036365E26D0423ED
:100ED0009340334209D02268126812F0020F04D006
:100EE000BB60636D43F004036365E26D10239340C0
:100EF000334224D02268126812F0080F1FD0BB6062
:100F000023681A6812F4802F0DD01B6813F4002F89
:100F100004D1236C9BB12046984710E0A36C73B1B9
:100F2000204698470BE01A6812F4807F03D11A68B4
:100F300022F008021A60236C0BB120469847E26D3C
:100F400020239340334255D02268126812F0100FCC
:100F500050D0BB6094F83530DBB2052B0ED023683F
:100F60001A6812F4802F33D01B6813F4002F2AD193
:100F7000636C002B3ED0204698473BE02268136804
:100F800023F0160313602268536923F08003536132
:100F9000236CA3B12268136823F008031360E26D89
:100FA0003F239340BB60012384F83530002384F84D
:100FB0003430236D002B3FD0204698473CE0A36C93
:100FC000002BE7D1EBE7E36BA3B12046984711E094
:100FD0001A6812F4807F09D11A6822F010021A6090
:100FE000012384F83530002384F83430E36B0BB1EF
:100FF00020469847636DFBB1636D13F0010F17D066
:10100000052384F835302268136823F00103136048
:10101000019B01330193AB4204D823681B6813F092
:10102000010FF5D1012384F83530002384F83430E2
:10103000E36C0BB12046984703B0F0BD00000020E0
:10104000B5814E1B00230F2B00F2DA8030B583B040
:1010500068E085684FEA430E032404FA0EF425EA9B
:101060000405CC6804FA0EF42C438460446824EA36
:1010700002044A68C2F300129A40224342605FE0D1
:10108000DC08083450F8242003F00705AD004FF0C9
:101090000F0E0EFA05FE22EA0E0E0A69AA4042EA77
:1010A0000E0240F824205FE0042200E0002202FA51
:1010B0000EF22A430234534D45F82420524A9468D4
:1010C0006FEA0C0224EA0C05D1F804E01EF4801F3C
:1010D00001D04CEA04054C4CA560E46802EA040522
:1010E000D1F804E01EF4001F01D04CEA0405464C80
:1010F000E560646802EA0405D1F804E01EF4003FEC
:1011000001D04CEA0405404C6560246822404D68DB
:1011100015F4803F01D04CEA04023B4C22600133BD
:101120000F2B6BD801229A400C6804EA020C32EAB9
:101130000404F4D14C6804F00304013C012C88D968
:101140004A6802F00302032A09D0C4685D00032242
:10115000AA4024EA02048A68AA402243C2604A687C
:1011600002F00302022A8BD004684FEA430E0322E6
:1011700002FA0EF224EA02044A6802F0030202FABA
:101180000EF2224302604A6812F4403FC7D00022A8
:1011900001921E4A546C44F480445464526C02F42C
:1011A00080420192019A9C08A51C164A52F82550CB
:1011B00003F0030E4FEA8E0E0F2202FA0EF225EA1A
:1011C0000205134A90423FF471AF02F580629042EB
:1011D0000ED002F5806290420CD002F580629042FF
:1011E0000AD002F5806290423FF45EAF07225EE7CC
:1011F00001225CE702225AE7032258E703B030BD20
:10120000704700BF00380140003C014000380240F8
:1012100000000240002800F0E08170B582B0044672
:10122000036813F0010F3BD09F4B9B6803F00C0346
:10123000042B2CD09C4B9B6803F00C03082B21D073
:101240006368B3F5803F4FD0B3F5A02F52D0964BD3
:101250001A6822F480321A601A6822F480221A6016
:101260006368002B50D0FFF71FFC05468E4B1B68B0
:1012700013F4003F14D1FFF717FC401B6428F5D985
:101280000320B1E1884B5B6813F4800FD8D0864B04
:101290001B6813F4003F03D06368002B00F09F81AC
:1012A000236813F0020F54D07F4B9B6813F00C0F90
:1012B0003ED07D4B9B6803F00C03082B33D0E368D2
:1012C000002B68D0794B01221A60FFF7EDFB054631
:1012D000754B1B6813F0020F54D1FFF7E5FB401B61
:1012E0000228F5D903207FE16F4A136843F4803365
:1012F0001360B5E76C4B1A6842F480221A601A68D2
:1013000042F480321A60ABE7FFF7CEFB0546664B2E
:101310001B6813F4003FC3D0FFF7C6FB401B6428D3
:10132000F5D9032060E1604B5B6813F4800FC6D1F0
:101330005D4B1B6813F0020F03D0E368012B40F0F4
:101340005081594A136823F0F803216943EAC10325
:101350001360236813F0080F42D063696BB3534BDB
:101360000122C3F8802EFFF79FFB05464E4B5B6FB3
:1013700013F0020F34D1FFF797FB401B0228F5D979
:10138000032031E1484A136823F0F803216943EA56
:10139000C1031360DDE7454B00221A60FFF784FBB1
:1013A0000546414B1B6813F0020FD2D0FFF77CFBC0
:1013B000401B0228F5D9032016E13C4B0022C3F85C
:1013C000802EFFF771FB0546374B5B6F13F0020F62
:1013D00006D0FFF769FB401B0228F5D9032003E183
:1013E000236813F0040F77D02F4B1B6C13F0805F32
:1013F00033D1002301932C4B1A6C42F080521A64B3
:101400001B6C03F080530193019B0125284B1B6843
:1014100013F4807F23D0A368012B34D0052B38D060
:10142000214B1A6F22F001021A671A6F22F0040290
:101430001A67A368002B3DD0FFF736FB06461A4B10
:101440001B6F13F0020F46D1FFF72EFB801B41F2FA
:1014500088339842F3D90320C6E00025D6E7144A22
:10146000136843F480731360FFF71EFB0646104BAE
:101470001B6813F4807FCED1FFF716FB801B022878
:10148000F5D90320B0E0084A136F43F00103136756
:10149000CFE7054B1A6F42F004021A671A6F42F049
:1014A00001021A67C5E700BF00380240000047424A
:1014B00000700040FFF7F8FA0646524B1B6F13F01E
:1014C000020F08D0FFF7F0FA801B41F288339842F0
:1014D000F3D9032088E0EDB9A369002B00F08380E5
:1014E000484A926802F00C02082A51D0022B17D009
:1014F000454B00221A66FFF7D7FA0446414B1B689A
:1015000013F0007F42D0FFF7CFFA001B0228F5D975
:10151000032069E03B4A136C23F080531364DBE73C
:10152000394B00221A66FFF7BFFA0546354B1B6898
:1015300013F0007F06D0FFF7B7FA401B0228F5D959
:10154000032051E0E369226A1343626A43EA82138B
:10155000A26A5208013A43EA0243E26A43EA02639A
:10156000284A5360284B01221A66FFF79DFA044669
:10157000244B1B6813F0007F06D1FFF795FA001B80
:101580000228F5D903202FE000202DE000202BE0D9
:10159000012B2BD01B4B5B6803F48001E269914265
:1015A00026D103F03F02216A8A4223D1616A47F6BD
:1015B000C0721A40B2EB811F1ED103F44031A26AFF
:1015C0005208013AB1EB024F18D103F07063E26A9E
:1015D000B3EB026F14D1002006E001207047012018
:1015E00002E0012000E0002002B070BD0120FBE716
:1015F0000120F9E70120F7E70120F5E70120F3E7F3
:101600000120F1E7003802400000474208B5264BB0
:101610009B6803F00C03042B41D0082B41D1224BD3
:101620005A6802F03F025B6813F4800F12D01E4B21
:101630005968C1F388111D480023A1FB0001FEF782
:10164000BBFE194B5B68C3F3014301335B00B0FB86
:10165000F3F008BD144B5868C0F388104FEA401CE3
:10166000BCEB000C6EEB0E0E4FEA8E1343EA9C634C
:101670004FEA8C11B1EB0C0163EB0E03DB0043EA84
:101680005173C90011EB000C43F1000399020023D0
:101690004FEA8C2041EA9C51FEF78EFED1E70348C9
:1016A000D7E70348D5E700BF0038024040787D0106
:1016B0000024F400002800F09B8070B50D4604461D
:1016C0004F4B1B6803F007038B4208D2CBB24C4A46
:1016D0001370136803F007038B4240F08B8023687C
:1016E00013F0020F17D013F0040F04D0454A93688B
:1016F00043F4E0539360236813F0080F04D0414A89
:10170000936843F4604393603E4A936823F0F00388
:10171000A1680B439360236813F0010F32D0636814
:10172000012B21D09A1E012A25D9364A126812F0BF
:10173000020F61D033498A6822F0030213438B60A1
:10174000FFF7B2F906462F4B9B6803F00C03626863
:10175000B3EB820F16D0FFF7A7F9801B41F2883355
:101760009842F0D9032042E0264A126812F4003F62
:10177000E0D101203BE0234A126812F0007FD9D16A
:10178000012034E01E4B1B6803F00703AB4207D96E
:10179000EAB21B4B1A701B6803F00703AB422DD152
:1017A000236813F0040F06D0164A936823F4E0531D
:1017B000E1680B439360236813F0080F07D0114AC8
:1017C000936823F46043216943EAC1039360FFF700
:1017D0001DFF0C4B9B68C3F303130B4AD35CD8402B
:1017E0000A4B18600A4B1868FEF7ECFF002070BD2A
:1017F000012070470120FAE70120F8E70120F6E711
:10180000003C024000380240584000080000002020
:1018100008000020014B1868704700BF000000203E
:1018200008B5FFF7F7FF044B9B68C3F38223034A15
:10183000D35CD84008BD00BF0038024050400008CB
:1018400008B5FFF7E7FF044B9B68C3F34233034A35
:10185000D35CD84008BD00BF0038024050400008AB
:101860000F2303600B4B9A6802F0030242609A68F0
:1018700002F0F00282609A6802F4E052C2609B6853
:10188000DB0803F4E0530361034B1B6803F0070319
:101890000B60704700380240003C02407047000077
:1018A00090F83D30DBB2012B2FD1022380F83D3080
:1018B0000268D36843F00103D3600368154A93427A
:1018C00018D0B3F1804F15D0A2F57C42934211D0CD
:1018D00002F5806293420DD002F58062934209D0F6
:1018E00002F59A32934205D01A6842F001021A605A
:1018F000002070479A6802F00702062A07D01A688B
:1019000042F001021A600020704701207047002059
:10191000704700BF00000140704770477047704734
:1019200070B504460368DE681D6915F0020F10D01B
:1019300016F0020F0DD06FF002021A610123037737
:1019400003689B6913F0030F5ED0FFF7E6FF0023E7
:10195000237715F0040F12D016F0040F0FD0236870
:101960006FF004021A610223237723689B6913F442
:10197000407F4FD02046FFF7D0FF0023237715F09C
:10198000080F12D016F0080F0FD023686FF008026E
:101990001A61042323772368DB6913F0030F40D017
:1019A0002046FFF7BAFF0023237715F0100F12D05F
:1019B00016F0100F0FD023686FF010021A61082381
:1019C00023772368DB6913F4407F31D02046FFF78B
:1019D000A4FF0023237715F0010F02D016F0010FAA
:1019E0002DD115F0800F02D016F0800F2FD115F0F9
:1019F000400F02D016F0400F31D115F0200F02D069
:101A000016F0200F33D170BDFFF786FF2046FFF799
:101A100085FF9CE72046FFF77FFF2046FFF77EFF0C
:101A2000ABE72046FFF778FF2046FFF777FFBAE7DE
:101A30002046FFF771FF2046FFF770FFC9E72368D4
:101A40006FF001021A612046FEF732FEC9E72368F3
:101A50006FF080021A61204600F095F8C7E723680E
:101A60006FF040021A612046FFF759FFC5E723686F
:101A70006FF020021A61204600F084F8C3E70000EE
:101A80000368294A90420ED0B0F1804F0BD0A2F5E6
:101A90007C42904207D002F58062904203D002F56A
:101AA0008062904203D123F070034A6813431E4AB8
:101AB00090421AD0B0F1804F17D0A2F57C429042EC
:101AC00013D002F5806290420FD002F580629042FE
:101AD0000BD002F59A32904207D002F58062904214
:101AE00003D002F58062904203D123F44073CA68A8
:101AF000134323F080034A69134303608B68C36276
:101B00000B688362084B98420AD001234361036942
:101B100013F0010F03D0036923F001030361704741
:101B20000B690363F1E700BF0000014040B310B54B
:101B3000044690F83D30F3B1022384F83D3021464D
:101B400051F8040BFFF79CFF012384F8463084F81A
:101B50003E3084F83F3084F8403084F8413084F8D7
:101B6000423084F8433084F8443084F8453084F8B7
:101B70003D30002010BD80F83C30FFF78FFEDBE7E2
:101B80000120704770477047026802F10C0353E868
:101B9000003F23F0C0030C3242E800310029F3D1AA
:101BA000202380F841307047026802F10C0353E8AB
:101BB000003F23F490730C3242E800310029F3D146
:101BC000026802F1140353E8003F23F001031432CA
:101BD00042E800310029F3D1036B012B05D020230B
:101BE00080F84230002303637047026802F10C035F
:101BF00053E8003F23F010030C3242E80031002983
:101C0000F3D1ECE790F84130DBB2212B01D0022078
:101C100070478368B3F5805F17D0036A5A1C02626D
:101C20001A7803685A60C38C9BB2013B9BB2C38491
:101C30004BB90268D36823F08003D3600268D3688D
:101C400043F04003D360002070470369002BE4D1C8
:101C5000036A1B880268C3F308035360036A0233F4
:101C60000362E0E710B504460268136923F44053A9
:101C7000C1680B431361836802691A4343691A43BD
:101C8000C3691A430168CB6823F4164323F00C039D
:101C90001343CB600268536923F4407381690B439B
:101CA00053610368314A934206D002F58062934241
:101CB00002D0FFF7B5FD01E0FFF7C2FDE369B3F520
:101CC000004F29D00021031849411B1841F10001A0
:101CD000C90041EA5371DB00181863684FEA8302B8
:101CE0004FEA937341F10001FEF766FB204AA2FB25
:101CF00000314909642303FB11031B013233A2FBAA
:101D000003235B0903F0F00202EB011203F00F035F
:101D1000216813448B6010BD0023021843EB0301BC
:101D2000121841F10001C90041EA5271D2001018A5
:101D300041F10001626892185B41FEF73DFB0C4ADD
:101D4000A2FB00314909642303FB1103DB0032339A
:101D5000A2FB03235B095A0002F4F87202EB0112A2
:101D600003F00703216813448B60D4E7001001409F
:101D70001F85EB512DE9F04383B005460E4617460B
:101D80009946DDF828802B681C6836EA04040CBFED
:101D900001240024BC4228D1B8F1FF3FF3D0FEF764
:101DA00083FEA0EB0900404523D8B8F1000F22D0F4
:101DB0002B68DA6812F0040FE5D0802EE3D0402EB5
:101DC000E1D01A6812F0080FDDD0002401941A68DF
:101DD00001925B680193019B2846FFF7E5FE08230B
:101DE0006B6485F84040012000E0002003B0BDE8AE
:101DF000F0830320FAE70320F8E760B310B5044648
:101E000090F8413013B3242384F841302268D3681A
:101E100023F40053D3602046FFF724FF22681369A0
:101E200023F4904313612268536923F02A0353611A
:101E30002268D36843F40053D360002060642023F9
:101E400084F8413084F84230606310BD80F840303F
:101E5000FEF75CFDD7E7012070472DE9F04182B025
:101E60001E4690F84130DBB2202B56D104460D4679
:101E70009046002955D00AB901204FE00023436461
:101E8000212380F84130FEF70FFE0746A4F8248096
:101E9000A4F82680A368B3F5805F02D04FF0000855
:101EA00014E023692BB34FF000080FE0202384F8DF
:101EB0004130032032E038F8023B2268C3F30803C4
:101EC0005360E28C92B2013A92B2E284E38C9BB20C
:101ED00093B100963B46002280212046FFF74AFF3F
:101EE0000028E3D1002DE6D015F8012B23685A60B5
:101EF000E7E7A8460025E9E700963B460022402197
:101F00002046FFF737FF18B9202384F8413005E059
:101F1000202384F84130032000E0022002B0BDE815
:101F2000F0810120FAE710B5044603685A6990F879
:101F30004130DBB2212B0AD023685A6902F04002FB
:101F400094F84230DBB2222B19D0002010BD02F0F1
:101F50008002002AF0D0226802F1140353E8003F07
:101F600023F08003143242E800310029F3D1A06B42
:101F700008B1FEF71CFF2046FFF706FEDCE7002A4B
:101F8000E3D0226802F1140353E8003F23F040033A
:101F9000143242E800310029F3D1E06B08B1FEF7BA
:101FA00006FF2046FFF700FECFE7704708B501683F
:101FB000CA6822F04002CA60202280F84120FFF760
:101FC000F4FF002008BD70477047704710B5846B60
:101FD00023685A6994F84130DBB2212B10D0236872
:101FE0005A6902F0400294F84230DBB2222B11D041
:101FF000636C43F0100363642046FFF7E6FF10BDF7
:1020000002F08002002AEAD00023E3842046FFF792
:10201000BBFDE4E7002AEBD00023E3852046FFF771
:10202000C3FDE5E708B5806B0023C385C384FFF7D4
:10203000CCFF08BD704790F84230DBB2222B69D14B
:102040008368B3F5805F4FD0826AB3F5805F04D0B8
:10205000002B56D10369002B53D103685B681370C2
:10206000836A01338362C38D9BB2013B9BB2C385FC
:10207000002B51D100B583B00268D36823F0200350
:10208000D3600268D36823F48073D3600268536915
:1020900023F001035361202380F84230002343637F
:1020A000036B012B33D100230363026802F10C039D
:1020B00053E8003F23F010030C3242E800310029BE
:1020C000F3D103681A6812F0100F06D000220192B3
:1020D0001A6801925B680193019B818DFFF7AAFF4B
:1020E000002003B05DF804FB0269002AACD1826ACB
:1020F00003685B68C3F308031380836A0233836257
:10210000B1E703685B6803F07F031370A8E7FFF78C
:102110005AFFE5E7022070470020704710B582B0F3
:10212000044602681368D068516913F00F0F09D193
:1021300013F0200F0CD010F0200F09D02046FFF72D
:102140007AFF16E011F0010115D110F4907F12D141
:10215000216B012979D013F0800F03D010F0800F8C
:1021600040F0148113F0400F03D010F0400F40F006
:10217000118102B010BD13F0010F06D010F4807F62
:1021800003D0626C42F00102626413F0040F04D0C9
:1021900019B1626C42F00202626413F0020F04D0C3
:1021A00019B1626C42F00402626413F0080F07D0A8
:1021B00010F0200F00D119B1626C42F00802626485
:1021C000626C002AD5D013F0200F02D010F0200F3F
:1021D00029D123685B6903F04003626C12F0080F99
:1021E00000D163B32046FFF7DFFC23685B6913F07F
:1021F000400F20D0226802F1140353E8003F23F07F
:102200004003143242E800310029F3D1E36B73B18B
:10221000624A1A65E06BFEF714FE0028A9D0E06B55
:10222000036D9847A5E72046FFF705FFD1E7204655
:10223000FFF7CBFE9DE72046FFF7C7FE99E7204654
:10224000FFF7C3FE0023636493E713F0100F82D0FF
:1022500010F0100F3FF47FAF002301931368019338
:1022600053680193019B536913F0400F52D0E26B06
:1022700013685B689BB2002B3FF47BAFA18D994242
:102280007FF677AFE385D369B3F5807F37D02268D7
:1022900002F10C0353E8003F23F480730C3242E850
:1022A00000310029F3D1226802F1140353E8003F02
:1022B00023F00103143242E800310029F3D12268EF
:1022C00002F1140353E8003F23F04003143242E8C4
:1022D00000310029F3D1202384F842300023236306
:1022E000226802F10C0353E8003F23F010030C3284
:1022F00042E800310029F3D1E06BFEF758FD0223DC
:102300006363A18DE38D9BB2C91A89B22046FFF7A2
:1023100091FE2EE7A18DE38D9BB2C91A89B2E38DA0
:102320009BB2002B3FF425AF00293FF422AF226877
:1023300002F10C0353E8003F23F490730C3242E89F
:1023400000300028F3D1226802F1140353E8003F63
:1023500023F00103143242E800300028F3D1202397
:1023600084F8423000232363226802F10C0353E80F
:10237000003F23F010030C3242E800300028F3D174
:10238000022363632046FFF755FEF2E62046FFF77F
:1023900039FCEEE62046FFF709FEEAE625200008B4
:1023A00008B5806B01234363036B012B02D0FFF759
:1023B0000BFE08BD818D4908FFF73CFEF9E708B523
:1023C0000346806B1B681B6813F4807F2BD10023AE
:1023D000C385026802F10C0353E8003F23F48073C5
:1023E0000C3242E800310029F3D1026802F11403F3
:1023F00053E8003F23F00103143242E80031002982
:10240000F3D1026802F1140353E8003F23F04003C4
:10241000143242E800310029F3D1202380F8423001
:10242000036B012B07D000234363036B012B0FD0F9
:10243000FFF7C9FD08BD026802F10C0353E8003F35
:1024400023F010030C3242E800310029F3D1EAE70F
:10245000818DFFF7EFFDEDE730B583B004461346FD
:102460008162828500254564222280F84220C26B69
:102470001F48D063E26B1F481064E26B1E48D064B3
:10248000E26B156520680A46011DE06BFEF75AFCF9
:10249000019523681A6801925B680193019B236987
:1024A0005BB1226802F10C0353E8003F43F48073F0
:1024B0000C3242E800310029F3D1226802F1140302
:1024C00053E8003F43F00103143242E80031002991
:1024D000F3D1226802F1140353E8003F43F04003B4
:1024E000143242E800310029F3D1002003B030BD9E
:1024F000BF230008A1230008CD1F000808B590F8ED
:102500004230DBB2202B08D149B10AB9012008BD05
:1025100000230363FFF7A0FFF9E70220F7E701209C
:10252000F5E70000F8B504460F4616461D4634226E
:10253000002101F059FC25F003036760A661E36107
:1025400026616661A3F10802A2600222E2603344C0
:1025500043F8044CA3F1080243F8086C32600F4BB7
:10256000736000232362EFF3108272B60C4B23607A
:102570000C4B1B6853B90C490C60E46224630133B3
:1025800008490B6082F310880020F8BD06490968ED
:10259000086B0C63C4622063E162F0E7EEEEFFFFBC
:1025A00045545942BC070020C007002038B5EFF35E
:1025B000108372B61C4A846E944202D083F3108852
:1025C00038BDD0F8AC208A42F8D1C26E002AF5D0CE
:1025D000164914688C42F1D151690029EED00021CE
:1025E000816651691469E4B10139516189B9116198
:1025F000026B072AE2D1C0F884200D490A68013233
:102600000A6083F3108800F02BFBEFF3108372B69F
:10261000D4E7016F456F4D672967A042E8D111618A
:10262000E6E70121D160E3E7AD2500084E445644BA
:10263000F407002038B504460D462422002101F09D
:10264000D3FB6560EFF3108272B60C4B23600C4B2A
:102650001B6853B90B490C60A461E461013308495C
:102660000B6082F31088002038BD06490968C869EC
:10267000CC618461E061A161F0E700BF4E44564443
:10268000D4070020D8070020F8B50746EFF3108CD8
:1026900072B6846802F00206056A0DB124EA0504E8
:1026A000002E39D004EA010031EA040536D006983C
:1026B00000284FD02948006800284DD128480468D8
:1026C0002848A066A167C4F88020E367E766D4F8CD
:1026D000AC300133C4F8AC307B69002B33D13C61A2
:1026E000246764677B6901337B61072323630123CC
:1026F000A363069BE364194A1368013313608CF3E8
:102700001088204600F03CFBEFF3108C72B6D4F832
:1027100084008CF31088F8BD04EA01000028C6D0BC
:102720001C6012F00100F4D07B690BB13B692BB146
:10273000BB6823EA0103BB600020EAE73B6A0B4366
:102740003B620020E5E73B6923675A6F62671467C5
:102750005C67C7E70720DCE70720DAE7F40700201B
:102760008C080020AD2500082DE9F04F83B0844689
:10277000EFF3108E72B612F00203019313D0436987
:102780000BB1036953B1DCF808300B40CCF80830CA
:102790008EF31088002003B0BDE8F08F036A63EA6F
:1027A00001030362F4E782680A438260036A13B19B
:1027B00023EA01030362DCF81440DCF81050002D1A
:1027C00000F0D780012C0BD00020CCF810006D4910
:1027D0000B6801330B60DDF804902E46074657E086
:1027E000AB6FD5F8801011F0020F07D002EA030991
:1027F00033EA020004D0DDF80490B1E002EA0309F4
:10280000B9F1000F00F0AC80E86F026011F0010F29
:1028100005D0DCF8082022EA0302CCF808200023C7
:10282000CCF81030CCF81430AB66C5F88430554A7B
:102830001368013313608EF31088284600F010FAF5
:10284000EFF3108E72B6A1468AE02B4632E002EA20
:10285000080B196B07293DD007293FD0196F994202
:102860004ED0D3F87480C1F87480C8F87010B342A9
:1028700044D0DCF814100139CCF81410002841D0F1
:102880003B67002119671F464FF00109013C40D00A
:102890008EF31088EFF3108E72B6DCF80C30002B3C
:1028A000D3D00023CCF80C30DCF81440DCF808302E
:1028B0001A4333461D6FD3F87880D3F880A01AF0FE
:1028C000020FC4D002EA080B38EA0201C1D0DDF8D9
:1028D00004B0BEE7BBF1000FD8D0BDE7D96F0A60E6
:1028E0001AF0010F05D0DCF8081021EA0801CCF835
:1028F000081000219966C3F88410AFE71E6FB8E78F
:102900000026B6E7002119671F4618464FF0010957
:10291000BCE7CCF81060DCF8203043B1DCF80820CC
:1029200022EA0302CCF808200023CCF820308EF3F2
:1029300010880CE0046FEFF3108172B6114A13682F
:102940000133136081F3108800F08AF920460028D3
:10295000F0D1EFF3108E72B60A4A1368013B136090
:102960008EF31088B9F1010F7FF414AF00F05AF91B
:1029700010E72CB10123CCF80C30DDF80490EFE720
:10298000A146EDE7F407002008B500F0F5F800F0E7
:10299000B1FB00230C4A13600C4A13600C4A13600D
:1029A0000C4A13600C4A13600C4A13600C4A136003
:1029B0000C4A13600C4A13600C4A13600C4A1360F3
:1029C0000C4A136008BD00BFE8070020E4070020A0
:1029D000E0070020DC070020D8070020D4070020F3
:1029E000C8070020C4070020C0070020BC07002043
:1029F000D0070020CC07002010B50F4B1B6813F147
:102A00000F3F0CD10C4C4FF0F03323600B4B186888
:102A1000FDF794FD00232360FDF702FC10BD064B7B
:102A20004FF0F0321A60FDF7BBFBFFF7ADFF044A31
:102A3000136801331360E5E70C000020B80700209D
:102A4000F40700202DE9F84F04468A46914698463F
:102A50000A9D0B9E0C9FDDF838B03246EF212846C8
:102A600001F0C2F9B0220021204601F0BDF9C4F8FE
:102A700028A0C4F84490C4F84880E5606661E76225
:102A8000C4F89470C4F818B0C4F81CB02023C4F87B
:102A90009C30013E354425610D9B9F422FD003237E
:102AA00023632D4B6365A4652C492046FDF708FC84
:102AB000EFF3108172B62A4B23602A4B1B6813BBBD
:102AC000294A1460C4F88840C4F88C400133254A70
:102AD0001360264A1368013313600F9B012B2BD11F
:102AE000EFF30582224B1B681343B3F1F03F17D37A
:102AF000204B1D68F5B1EE6BEB6AEB6312E0E76308
:102B0000C4F89870CBE7184A1268D2F88C00C2F863
:102B10008C40C0F88840C4F88C00C4F88820D5E701
:102B20000026354681F31088204600F099F885B1DB
:102B3000EE630EE00026F5E781F31088EFF31081D5
:102B400072B60A4A1368013B136081F3108800F0E3
:102B500069F80020BDE8F88F2D2F0008DD2B000854
:102B6000445248548008002084080020F4070020C4
:102B70000C0000208808002010B500240D4B1C60BC
:102B80000D4B1C600D4B1C600D4B20221A608022E7
:102B900021460C4801F028F90B4B1C600B4B1C60C4
:102BA0000B4B1C600B4B1C600B4A136843F0857386
:102BB000136010BD8C080020880800207C080020CD
:102BC00078080020F80700208408002080080020F2
:102BD000F4070020F0070020EC07002010B50E4B92
:102BE0001C68636CA06C98470C4B1B680BB12046AB
:102BF0009847EFF3108172B601232363A363002388
:102C0000E364074A13680133136081F31088204698
:102C100000F0B6F810BD00BF8C080020F0070020BF
:102C2000F40700200B4B1B689BB90B4B1A680B4B2E
:102C30001B689A420DD04FF0E0234FF08052C3F84A
:102C4000042DEFF3058323B9EFF3108362B683F30A
:102C500010887047F40700208C08002088080020A6
:102C600038B50446EFF3108572B6436EDBB14C30D5
:102C700000F0D4FA3C4A1368013B1360A36B002BAD
:102C800062D1236B002B45D0636B002B3ED12363B5
:102C9000E26A364B53F8223043B15A6A14625C62DE
:102CA0006262236236E00023C364E3E72F4B43F8FC
:102CB000224024626462012191402D4803680B4345
:102CC00003602C4B1B68934224D92A4B1A602A4B71
:102CD0001B68C3B1DB6B93421CD9274B1C6085F387
:102CE0001088214B1B6873BB4FF0E0234FF08052DC
:102CF000C3F8042DEFF305832BBBEFF3108362B60B
:102D000083F310881FE01C4B1C6003E00023636307
:102D100003232363194B1B6885F31088164A126836
:102D20009A4210D0104B1B686BB94FF0E0234FF064
:102D30008052C3F8042DEFF3058323B9EFF310831A
:102D400062B683F3108838BD236B012BE2D0022BCF
:102D5000E0D0636B13B9A3632363DBE700236363F2
:102D600003232363D6E700BFF4070020F807002001
:102D70007C08002078080020880800208C080020AB
:102D800070B504464A4B1D68EFF3108672B6854253
:102D90001ED0484A1368013B1360A36B012B24D05B
:102DA00086F31088444B1B68AB4210D0414B1B6824
:102DB0006BB94FF0E0234FF08052C3F8042DEFF3CE
:102DC000058323B9EFF3108362B683F3108870BDD7
:102DD000C36C13B1B3F1FF3F03D1E269374B1A6003
:102DE000D7E74C3000F0EEF9F7E70023A363E26A7F
:102DF000236A9C422CD0616A59620B62304951F8B7
:102E00002210A14220D02C4B1B68A342C8D12D4BCD
:102E10001A682B4B53F82220274B1A6086F3108830
:102E2000244B1B68002BD2D14FF0E0234FF080528F
:102E3000C3F8042DEFF30583002BC8D1EFF3108303
:102E400062B683F31088C2E71D4941F82230DAE701
:102E50001B4B002143F82210012303FA02F21A4906
:102E60000B6823EA02030B6033B193FAA3F3B3FABE
:102E700083F3144A1360C6E7124B20221A600E4BEC
:102E800000221A6086F310880A4B1B68002B9ED123
:102E90004FF0E0234FF08052C3F8042DEFF3058389
:102EA000002B94D1EFF3108362B683F310888EE782
:102EB0008C080020F40700208808002094080020D7
:102EC000F8070020780800207C080020114B1B68C0
:102ED000EFF3108272B610490020086063B1196BDD
:102EE00051B9D96999610D480160196A994203D0B5
:102EF000D86ADB6B984202D082F310887047084B87
:102F000043F820100749096853F82110064B19604F
:102F1000F2E700BF8C080020F00D0020940800208C
:102F2000F8070020780800208808002008B5EFF393
:102F3000108272B6036B042B07D0836ED0F8AC10EE
:102F400082F3108803B1984708BD04490B68013328
:102F50000B6082F31088FFF783FEF5E7F40700208B
:102F600010B5EFF3108472B6036A1BB1172084F317
:102F7000108810BD83680BB91720F8E7083000F0FF
:102F800021F90020F3E710B4EFF3108372B6046A5E
:102F900024B183F31088002010BC70478160C260A8
:102FA000F7E70000F8B504460F4616461D462C22EA
:102FB000002100F019FF6760069BA360079BE36098
:102FC00026616561EFF3108572B6104B2360104BDC
:102FD0001B686BB90F4A14606462A46201330C4A27
:102FE0001360089B012B0BD085F310880020F8BDDF
:102FF000084A1268916A94624C62A1626262EDE7CB
:1030000004F1080000F0DEF8EEE700BF4D4954413E
:10301000580D00205C0D0020EFF3108C72B6036A8F
:10302000002B49D030B400F10802254909689942C3
:103030001AD8244C24689C4216D9234D2D689D42F1
:1030400009D85D1BAD10691C8468202C0AD90C447A
:10305000203C846011E0591A641BA41004EBA10108
:103060000131F1E7816008E018490968914217D001
:103070008168202911D92039816081698A4212D062
:10308000C4694C6121611C68944212D00023036220
:103090008CF31088002030BC7047C1688160ECE779
:1030A000C1688160E9E719689142EFD100221A6096
:1030B000ECE78B611960E9E78CF31088002070471A
:1030C0006C0D0020680D0020640D0020540D0020C0
:1030D00008B5EFF3108172B6044A13680133136028
:1030E00081F310880248FFF7BBFD08BDF4070020FC
:1030F000A40C002030B587B000241F4B1C601F4B70
:103100001C601F4B1C601F4B1C601F4B1C601F4D25
:1031100080222146284600F067FE1D4B1D601D4B96
:103120001D601D4B05F17C021A6080351D601B4B34
:103130001B4A1A601B4B4FF480621A601A4B1C60CA
:10314000194B1B6800220592049203930293154BBE
:103150001B680193114B1B680093144B144A1549CB
:103160001548FFF76FFC0028EAD10023134A1360CB
:10317000134A136007B030BDF40D002094080020FE
:10318000F00D0020600D0020540D0020700D002077
:103190006C0D0020640D0020680D0020A00C0020A4
:1031A000980800209C0C0020980C00204D495441A8
:1031B0004D3200080C400008A40C00205C0D0020DB
:1031C000580D0020036823B1B3F1FF3F01D082699D
:1031D00002B17047202B15D8013B0D4A126802EB53
:1031E00083030C4A12689A4203D89B1A0A4A12684F
:1031F00013441A6842B1516908615061026141612A
:103200008361E6E71F23E8E7006140611860F7E7A4
:10321000640D0020680D00206C0D0020836953B1FF
:103220000269904208D0416951610A61196881427E
:1032300008D00023836170471A688242F9D10022C6
:103240001A60F6E793611A60F3E700003F4B98427B
:1032500000D0704770B582B0002556E03C4B1A682C
:103260003C4B1A6065E001912BE0A368E56861685A
:103270002160002930D0C4F818D024610094364968
:103280000C6082F310880BB128469847EFF3108644
:1032900072B6314B00221A60009BA3421FD086F306
:1032A0001088EFF3108272B6019CECB12369002103
:1032B00000919C42D7D0616959610B6101A9996164
:1032C00001932368202BD0D9203B2360C4F818D069
:1032D000246100940023D2E70021A161CFE7A2611D
:1032E0002046FFF76FFFDAE71C4B1B68002B29D144
:1032F0001B4803230363012383631A490B680133CB
:103300000B6082F31088FFF73BFDEFF3108172B67C
:10331000104B1A68136801930BB101A89861002340
:1033200013600C4A1368043313600F4A1268934207
:1033300094D00A4B00221A6081F31088EFF31082B8
:1033400072B6B1E782F31088DFE700BF4D49544100
:103350006C0D0020640D0020540D0020600D002035
:10336000A40C0020F4070020680D0020002850D095
:103370002DE9F8438946174698460646089B342BA4
:1033800002D00220BDE8F883EFF3108172B6264A1E
:1033900013680133136081F31088244B1C680020EC
:1033A000234D2D68854204D9B44202D0E46A01302D
:1033B000F6E7EFF3108172B61B4A1368013B136006
:1033C00081F31088FFF72EFCB44224D02FB3B8F15C
:1033D000630F24D9174B1A68174B9A4217D0002055
:1033E000EFF30582154B1B68134307D0EFF30582FB
:1033F000124B1B681343B3F1F03F12D30028C1D125
:1034000043463A4649463046FFF78CF8BAE7132060
:10341000E6E7022070470220B4E70320B2E7052068
:10342000B0E71320AEE700BFF4070020C00700207C
:10343000BC0700208C080020A40C00200C000020F9
:10344000002845D070B50E460546242A01D0062036
:1034500070BDEFF3108172B6204A13680133136018
:1034600081F310881E4B1C6800231E4A12689A4282
:1034700004D9AC4202D0A4690133F6E7EFF310811E
:1034800072B6164A1368013B136081F31088FFF788
:10349000C9FBAC421ED0144B1A68144B9A4215D08B
:1034A0000020EFF30582124B1B68134307D0EFF3A4
:1034B00005820F4B1B681343B3F1F03F0CD3002878
:1034C000C6D131462846FFF7B5F8C1E71320E8E733
:1034D000062070470620BBE71320B9E7F407002059
:1034E000D8070020D40700208C080020A40C00205E
:1034F0000C00002010B582B08446D0B11548DCF82D
:103500000040844202D0062002B010BDD3B104981E
:1035100058B1EFF3058E1048006850EA0E0013D141
:103520000E4804680E48844210D0032A10D80020A8
:1035300000E006200028E7D1049800906046FFF7DD
:10354000A3F8E1E70320DFE70420DDE70420DBE761
:103550000820D9E74E4456440C0000208C08002077
:10356000A40C002078B108B503460948D3F800C080
:10357000844501D0062008BD022A00D02AB9184689
:10358000FFF7F2F8F7E7062070470820F3E700BFDF
:103590004E4456442DE9F04786B00E9E00287DD05B
:1035A000894690469A460746149BB02B03D00E20BE
:1035B00006B0BDE8F087EFF3108172B6404A136899
:1035C0000133136081F310883E4B1C680F9B5A1E19
:1035D00032440020014602E0D4F8884001303A4BE2
:1035E0001B68834212D9BC4210D079B9E568B54254
:1035F00004D82369B34201D9012100269542EBD8B2
:1036000023699342E8D901210026E5E7EFF3108111
:1036100072B62B4A1368013B136081F31088FFF7E1
:1036200001FBBC423CD0002E3CD0B8F1000F3BD097
:103630000F9BC72B3AD9109B1F2B39D8119A934255
:1036400038D3139B012B37D8204B1A68204B9A4252
:1036500022D00020EFF305821E4B1B68134307D0D6
:10366000EFF305821B4B1B681343B3F1F03F25D3E7
:1036700000289DD1139B0593129B0493119B0393E8
:10368000109B02930F9B0193009653464246494676
:103690003846FFF7D7F98BE71320DBE70E2087E7E3
:1036A0000E2085E7032083E7032081E705207FE7DD
:1036B0000F207DE718207BE7102079E7132077E7BC
:1036C000F407002084080020800800208C080020D7
:1036D000A40C00200C00002048B108B50168054A80
:1036E000914201D0152008BDFFF73AFCFBE71520F9
:1036F000704700BF4D495441C0B108B503460D485D
:10370000D3F800C0844501D0152008BD81B1EFF386
:10371000058C0948006840EA0C00B0F1F03F01D385
:103720001320F2E71846FFF72EFCEEE7152070474E
:103730001620EAE74D4954410C0000202DE9F043E2
:1037400085B00F46904699460646002846D00F9B06
:103750002C2B03D0152005B0BDE8F083EFF31081CA
:1037600072B6294A13680133136081F31088274B1E
:103770001C68002001E0646A0130254D2D688542F7
:1037800001D9B442F7D1EFF3108172B61E4A136823
:10379000013B136081F31088FFF744FAB4422DD047
:1037A0000C9B6BB30E9B012B00D05BBB194B1A68B3
:1037B000194B9A4210D00020EFF30582174B1B687B
:1037C00013430CD0EFF30582144B1B681343B3F182
:1037D000F03F04D21320BEE71320EDE715200028A8
:1037E000B9D10E9B02930D9B01930C9B00934B460A
:1037F000424639463046FFF7D5FBACE71520AAE72D
:103800001620A8E71720A6E7F40700205C0D00208B
:10381000580D00208C080020A40C00200C00002073
:1038200048B108B50168054A914201D0152008BD8C
:10383000FFF7F2FBFBE71520704700BF4D495441ED
:1038400084464FF6FF700B46013989B28BB11CF8E4
:10385000013B5840002302E0400801339BB2072B94
:10386000F1D810F0010FF7D04AF2010282EA5000BD
:10387000F3E77047F8B50D4616464B4C0022A4F806
:1038800000210122A4F8002120700222A4F80021C6
:1038900061700322A4F80021320AA2700422A4F865
:1038A0000021E6704A1ED2B2032A23D80521A4F8CB
:1038B0000011190A21710621A4F800116371A4F8FE
:1038C0000231394CB4F8007139462046FFF7B8FF91
:1038D0007B1C9BB2A4F80031E0550237A4F80071BC
:1038E000000AE054013D052D3ED8DFE805F0373EE3
:1038F000454C53584A1FD2B2012A24D91029E0D18D
:10390000294A0521A2F80011190A11710621A2F80D
:103910000011D9B251710720A2F80001490091713C
:103920000022B2EB430FCCDA1F49B1F80011FD2998
:103930001AD81D484C1CA0F80041069CA45C4454B5
:10394000013292B2EDE7184A0521A2F80011190AD6
:1039500011710621A2F800115371B2E7124B002237
:1039600083F80421A3F80A61F8BD0F4B002283F805
:103970000521A3F80C61F7E70B4B002283F8062121
:10398000A3F80E61F0E7084B002283F80721A3F8A3
:103990001061E9E7044B002283F80821E4E7024BB9
:1039A000002283F80921DFE7F80F0020124B93F87B
:1039B000043103B310B5837890F803E04EEA032E88
:1039C0000379417941EA0321002301E001339BB2ED
:1039D0008B420FD23F2BF9D8DA080732825C03F012
:1039E000070422410EEB030C02F00102034C24F801
:1039F0001C20EBE710BD7047F80F0020780F002067
:103A0000124B93F8053103B310B5837890F803E0B7
:103A10004EEA032E0379417941EA0321002301E0B4
:103A200001339BB28B420FD23F2BF9D8DA08073211
:103A3000825C03F0070422410EEB030C02F001024A
:103A4000034C24F81C20EBE710BD7047F80F002052
:103A5000F80E0020124B93F8063103B310B58378AB
:103A600090F803E04EEA032E0379427942EA0322FA
:103A7000002301E001339BB293420FD23F2BF9D8D0
:103A800059000731445C191D10F811C00EEB0301F9
:103A90004CEA042C034C24F811C0EBE710BD70472E
:103AA000F80F0020780E0020124B93F8073103B373
:103AB00010B5837890F803E04EEA032E037942793B
:103AC00042EA0322002301E001339BB293420FD26A
:103AD0003F2BF9D859000731445C191D10F811C06B
:103AE0000EEB03014CEA042C034C24F811C0EBE765
:103AF00010BD7047F80F0020F80D0020042914D9DC
:103B000008B54378013B032B05D8DFE803F0020535
:103B1000080BFFF74BFF08BDFFF772FFFBE7FFF74E
:103B200099FFF8E7FFF7C0FFF5E770472DE9F04789
:103B3000089D0E4604460F46002B4AD194468C45FC
:103B4000B2FA82F260D942B1C2F12003974020FA62
:103B500003F30CFA02FC1F4394404FEA1C4E1FFA79
:103B60008CF6B7FBFEF1230C0EFB117743EA0743FB
:103B700001FB06F098420AD91CEB030301F1FF3761
:103B800080F01581984240F21281023963441B1A79
:103B9000A4B2B3FBFEF00EFB103344EA034400FB77
:103BA00006F6A6420AD91CEB040400F1FF3380F0AC
:103BB0000081A64240F2FD806444023840EA0140A0
:103BC000A41B00211DB1D4400023C5E90043BDE87A
:103BD000F0878B4205D90DB1C5E9000100210846E7
:103BE000F5E7B3FA83F1002946D1B34202D382420A
:103BF00000F2F580841A66EB030201201746002DBF
:103C0000E5D0C5E90047E2E7002A40F09380A1EB48
:103C10000C034FEA1C471FFA8CFE0121B3FBF7F699
:103C200007FB1630230C43EA00430EFB06F09842D4
:103C300008D91CEB030306F1FF3802D2984200F2C8
:103C4000D08046461B1AA4B2B3FBF7F007FB103333
:103C500044EA03440EFB00FEA64508D91CEB04040D
:103C600000F1FF3302D2A64500F2B6801846A4EB5D
:103C70000E0440EA0640A5E7C1F120078B4022FA76
:103C800007FC4CEA030C06FA01FE20FA07F426FAB8
:103C900007F344EA0E0400FA01F84FEA1C404FEA29
:103CA0001449B3FBF0FE1FFA8CF600FB1E3349EA01
:103CB00003430EFB06F9994502FA01F20BD91CEBFE
:103CC00003030EF1FF3A80F08580994540F282802F
:103CD000AEF1020E6344A3EB0909A4B2B9FBF0F301
:103CE00000FB139944EA094403FB06F6A64208D9EF
:103CF0001CEB040403F1FF3068D2A64266D9023BF4
:103D0000644443EA0E40A41BA0FB02E6B44273469F
:103D1000B14652D34FD05DB1B8EB030264EB090456
:103D200004FA07F722FA01F31F43CC40C5E90074F7
:103D300000214CE7C2F1200120FA01F30CFA02FC49
:103D400026FA01F1964033434FEA1C471FFA8CFED6
:103D5000B1FBF7F007FB1016190C41EA064100FB16
:103D60000EF68E4204FA02F408D91CEB010100F1B0
:103D7000FF382DD28E422BD902386144891B9BB269
:103D8000B1FBF7F607FB161143EA014306FB0EF100
:103D9000994208D91CEB030306F1FF3814D299426B
:103DA00012D9023E63445B1A46EA004136E73946BF
:103DB000EDE6184602E7F045ADD2BEEB020366EB36
:103DC0000C060138B146A6E74646ECE7034698E7FD
:103DD0004046D3E7D6467EE76444023847E70846C4
:103DE0000DE7023E63442DE7830730B547D0541EEC
:103DF000002A3ED0CAB2034601E0013C39D303F8A1
:103E0000012B9D07F9D1032C2CD9CDB205EB05254B
:103E10000F2C05EB054535D9A4F1100222F00F0C4B
:103E200003F1100EE6444FEA121C1A46C2E900558F
:103E3000C2E9025510327245F8D10CF1010214F0BA
:103E40000C0F03EB021204F00F0C13D0ACF10403BF
:103E500023F003030433134442F8045B9342FBD181
:103E60000CF003042CB1C9B21C4403F8011BA3429B
:103E7000FBD130BD64461346002CF4D1F9E703466C
:103E80001446C0E71A46A446E0E700BF70B50F4BE2
:103E90000F4DAB42A3EB050607D0B610002455F832
:103EA000043B01349847A642F9D800F07FF8094D49
:103EB000094B5E1BAB424FEAA60606D0002455F81C
:103EC000043B01349847A642F9D870BD78400008F9
:103ED000784000087840000880400008704700BF24
:103EE000704700BF024B13B1024800F005B870479D
:103EF00000000000053F0008002301461A4618464E
:103F000000F014B838B5074D074C2C1BA41005D091
:103F1000013C55F8043D9847002CF9D1BDE83840E4
:103F200000F04AB884400008804000082DE9F843BA
:103F30001B4D0646286898460F469146FFF7CEFF70
:103F4000184B1C681CB3286865681F2D22DC4EB90D
:103F50006B1C0235636044F82570FFF7C1FF002039
:103F6000BDE8F88304EB85010123C1F88890D4F8FB
:103F70008821AB401A43022EC4F88821C1F8088179
:103F8000E6D1D4F88C211A43C4F88C21E0E7064C22
:103F90001C60D8E7FFF7A4FF4FF0FF30E0E700BF59
:103FA000100000201012002014120020F8B500BFED
:103FB000F8BC08BC9E467047F8B500BFF8BC08BC0A
:043FC0009E46704762
:103FC400547820417070206D656D6F727920706F28
:103FD4006F6C00000000000055415254205461737E
:103FE4006B00000054696D656F75742054696D65CC
:103FF4007200000055415254204576656E74204687
:104004006C6167730000000053797374656D20540C
:10401400696D657220546872656164000101000075
:10402400060000000000000002020000060000007C
:104034000000000003030000060000000000000070
:10404400040400000600000000000000000000005E
:104054000102030400000000000000000102030448
:0C406400060708090006101600061016DA
:08407000BCFAFF7F0100000013
:08407800E53E000855040008B4
:044080002D04000803
:104084000024F4000100000010000000F0F0F0F043
:044094000C120020EA
:0400000508000A09DC
:00000001FF
